{
  "address": "0xbF8216841B3c3032381BD3f7233895Fe3b5BDCfB",
  "abi": [
    {
      "inputs": [],
      "stateMutability": "nonpayable",
      "type": "constructor"
    },
    {
      "inputs": [],
      "name": "amm",
      "outputs": [
        {
          "internalType": "contract IAerodromeVAMM",
          "name": "",
          "type": "address"
        }
      ],
      "stateMutability": "view",
      "type": "function"
    },
    {
      "inputs": [],
      "name": "getPrice",
      "outputs": [
        {
          "internalType": "uint256",
          "name": "price",
          "type": "uint256"
        }
      ],
      "stateMutability": "view",
      "type": "function"
    },
    {
      "inputs": [
        {
          "internalType": "contract IAggregatorInterface",
          "name": "oracle",
          "type": "address"
        },
        {
          "internalType": "address",
          "name": "token",
          "type": "address"
        }
      ],
      "name": "getPx",
      "outputs": [
        {
          "internalType": "uint256",
          "name": "",
          "type": "uint256"
        }
      ],
      "stateMutability": "view",
      "type": "function"
    },
    {
      "inputs": [],
      "name": "latestAnswer",
      "outputs": [
        {
          "internalType": "int256",
          "name": "",
          "type": "int256"
        }
      ],
      "stateMutability": "view",
      "type": "function"
    },
    {
      "inputs": [],
      "name": "offset",
      "outputs": [
        {
          "internalType": "uint256",
          "name": "",
          "type": "uint256"
        }
      ],
      "stateMutability": "view",
      "type": "function"
    },
    {
      "inputs": [],
      "name": "priceFeed0",
      "outputs": [
        {
          "internalType": "contract IAggregatorInterface",
          "name": "",
          "type": "address"
        }
      ],
      "stateMutability": "view",
      "type": "function"
    },
    {
      "inputs": [],
      "name": "priceFeed1",
      "outputs": [
        {
          "internalType": "contract IAggregatorInterface",
          "name": "",
          "type": "address"
        }
      ],
      "stateMutability": "view",
      "type": "function"
    },
    {
      "inputs": [
        {
          "internalType": "uint256",
          "name": "x",
          "type": "uint256"
        }
      ],
      "name": "sqrt",
      "outputs": [
        {
          "internalType": "uint256",
          "name": "y",
          "type": "uint256"
        }
      ],
      "stateMutability": "pure",
      "type": "function"
    },
    {
      "inputs": [],
      "name": "token0",
      "outputs": [
        {
          "internalType": "address",
          "name": "",
          "type": "address"
        }
      ],
      "stateMutability": "view",
      "type": "function"
    },
    {
      "inputs": [],
      "name": "token1",
      "outputs": [
        {
          "internalType": "address",
          "name": "",
          "type": "address"
        }
      ],
      "stateMutability": "view",
      "type": "function"
    }
  ],
  "transactionHash": "0x72737702e1b687f5b57dfa13d03abc29f5b313d32c2073e3d87a813ae77b2804",
  "args": [],
  "numDeployments": 1,
  "solcInputHash": "31f09566fda8f3faaa054f3e12d9b2cb",
  "bytecode": "0x6101406040523480156200001257600080fd5b50736cdcb1c4a4d1c3c6d054b27ac5b77e89eafb971d737e860098f58bbfc8648a4311b374b1d669a2bc6b734ec5970fc728c5f65ba413992cd5ff6fd70fcff06402540be4008373ffffffffffffffffffffffffffffffffffffffff1660808173ffffffffffffffffffffffffffffffffffffffff16815250508273ffffffffffffffffffffffffffffffffffffffff1660a08173ffffffffffffffffffffffffffffffffffffffff16815250508173ffffffffffffffffffffffffffffffffffffffff1660c08173ffffffffffffffffffffffffffffffffffffffff16815250508060e0818152505060805173ffffffffffffffffffffffffffffffffffffffff16630dfe16816040518163ffffffff1660e01b8152600401602060405180830381865afa1580156200014a573d6000803e3d6000fd5b505050506040513d601f19601f82011682018060405250810190620001709190620002c0565b73ffffffffffffffffffffffffffffffffffffffff166101008173ffffffffffffffffffffffffffffffffffffffff168152505060805173ffffffffffffffffffffffffffffffffffffffff1663d21220a76040518163ffffffff1660e01b8152600401602060405180830381865afa158015620001f2573d6000803e3d6000fd5b505050506040513d601f19601f82011682018060405250810190620002189190620002c0565b73ffffffffffffffffffffffffffffffffffffffff166101208173ffffffffffffffffffffffffffffffffffffffff168152505050505050620002f2565b600080fd5b600073ffffffffffffffffffffffffffffffffffffffff82169050919050565b600062000288826200025b565b9050919050565b6200029a816200027b565b8114620002a657600080fd5b50565b600081519050620002ba816200028f565b92915050565b600060208284031215620002d957620002d862000256565b5b6000620002e984828501620002a9565b91505092915050565b60805160a05160c05160e0516101005161012051610e2e6200036c6000396000818161059b01526106b30152600081816101f5015261054d015260006106d701526000818161057a015261068f01526000818161023d015261052c0152600081816102190152818161040001526104960152610e2e6000f3fe608060405234801561001057600080fd5b506004361061009e5760003560e01c8063677342ce11610066578063677342ce1461014b57806398d5fdca1461017b578063ab0ca0e114610199578063d21220a7146101b7578063d5556544146101d55761009e565b80630dfe1681146100a35780632a943945146100c1578063385aee1b146100df5780634815bf97146100fd57806350d25bcd1461012d575b600080fd5b6100ab6101f3565b6040516100b89190610763565b60405180910390f35b6100c9610217565b6040516100d691906107dd565b60405180910390f35b6100e761023b565b6040516100f49190610819565b60405180910390f35b610117600480360381019061011291906108a3565b61025f565b60405161012491906108fc565b60405180910390f35b61013561037b565b6040516101429190610930565b60405180910390f35b61016560048036038101906101609190610977565b61038a565b60405161017291906108fc565b60405180910390f35b6101836103f9565b60405161019091906108fc565b60405180910390f35b6101a161068d565b6040516101ae9190610819565b60405180910390f35b6101bf6106b1565b6040516101cc9190610763565b60405180910390f35b6101dd6106d5565b6040516101ea91906108fc565b60405180910390f35b7f000000000000000000000000000000000000000000000000000000000000000081565b7f000000000000000000000000000000000000000000000000000000000000000081565b7f000000000000000000000000000000000000000000000000000000000000000081565b6000808273ffffffffffffffffffffffffffffffffffffffff1663313ce5676040518163ffffffff1660e01b8152600401602060405180830381865afa1580156102ad573d6000803e3d6000fd5b505050506040513d601f19601f820116820180604052508101906102d191906109dd565b905060008473ffffffffffffffffffffffffffffffffffffffff166350d25bcd6040518163ffffffff1660e01b8152600401602060405180830381865afa158015610320573d6000803e3d6000fd5b505050506040513d601f19601f820116820180604052508101906103449190610a36565b905081600a6103539190610bc5565b670de0b6b3a7640000826103679190610c10565b6103719190610c81565b9250505092915050565b60006103856103f9565b905090565b600080820361039c57600090506103f4565b600060026001846103ad9190610cb2565b6103b79190610c81565b90508291505b818110156103f25780915060028182856103d79190610c81565b6103e19190610cb2565b6103eb9190610c81565b90506103bd565b505b919050565b60008060007f000000000000000000000000000000000000000000000000000000000000000073ffffffffffffffffffffffffffffffffffffffff16630902f1ac6040518163ffffffff1660e01b8152600401606060405180830381865afa158015610469573d6000803e3d6000fd5b505050506040513d601f19601f8201168201806040525081019061048d9190610cfb565b509150915060007f000000000000000000000000000000000000000000000000000000000000000073ffffffffffffffffffffffffffffffffffffffff166318160ddd6040518163ffffffff1660e01b8152600401602060405180830381865afa1580156104ff573d6000803e3d6000fd5b505050506040513d601f19601f820116820180604052508101906105239190610d4e565b905060006105717f00000000000000000000000000000000000000000000000000000000000000007f000000000000000000000000000000000000000000000000000000000000000061025f565b905060006105bf7f00000000000000000000000000000000000000000000000000000000000000007f000000000000000000000000000000000000000000000000000000000000000061025f565b90506000821180156105d15750600081115b610610576040517f08c379a000000000000000000000000000000000000000000000000000000000815260040161060790610dd8565b60405180910390fd5b6000600261063161062b87896106269190610c10565b61038a565b866106f9565b61063b9190610c10565b9050633b9aca0061064b8361038a565b633b9aca006106598661038a565b846106649190610c10565b61066e9190610c81565b6106789190610c10565b6106829190610c81565b965050505050505090565b7f000000000000000000000000000000000000000000000000000000000000000081565b7f000000000000000000000000000000000000000000000000000000000000000081565b7f000000000000000000000000000000000000000000000000000000000000000081565b600081670de0b6b3a7640000846107109190610c10565b61071a9190610c81565b905092915050565b600073ffffffffffffffffffffffffffffffffffffffff82169050919050565b600061074d82610722565b9050919050565b61075d81610742565b82525050565b60006020820190506107786000830184610754565b92915050565b6000819050919050565b60006107a361079e61079984610722565b61077e565b610722565b9050919050565b60006107b582610788565b9050919050565b60006107c7826107aa565b9050919050565b6107d7816107bc565b82525050565b60006020820190506107f260008301846107ce565b92915050565b6000610803826107aa565b9050919050565b610813816107f8565b82525050565b600060208201905061082e600083018461080a565b92915050565b600080fd5b600061084482610742565b9050919050565b61085481610839565b811461085f57600080fd5b50565b6000813590506108718161084b565b92915050565b61088081610742565b811461088b57600080fd5b50565b60008135905061089d81610877565b92915050565b600080604083850312156108ba576108b9610834565b5b60006108c885828601610862565b92505060206108d98582860161088e565b9150509250929050565b6000819050919050565b6108f6816108e3565b82525050565b600060208201905061091160008301846108ed565b92915050565b6000819050919050565b61092a81610917565b82525050565b60006020820190506109456000830184610921565b92915050565b610954816108e3565b811461095f57600080fd5b50565b6000813590506109718161094b565b92915050565b60006020828403121561098d5761098c610834565b5b600061099b84828501610962565b91505092915050565b600060ff82169050919050565b6109ba816109a4565b81146109c557600080fd5b50565b6000815190506109d7816109b1565b92915050565b6000602082840312156109f3576109f2610834565b5b6000610a01848285016109c8565b91505092915050565b610a1381610917565b8114610a1e57600080fd5b50565b600081519050610a3081610a0a565b92915050565b600060208284031215610a4c57610a4b610834565b5b6000610a5a84828501610a21565b91505092915050565b7f4e487b7100000000000000000000000000000000000000000000000000000000600052601160045260246000fd5b60008160011c9050919050565b6000808291508390505b6001851115610ae957808604811115610ac557610ac4610a63565b5b6001851615610ad45780820291505b8081029050610ae285610a92565b9450610aa9565b94509492505050565b600082610b025760019050610bbe565b81610b105760009050610bbe565b8160018114610b265760028114610b3057610b5f565b6001915050610bbe565b60ff841115610b4257610b41610a63565b5b8360020a915084821115610b5957610b58610a63565b5b50610bbe565b5060208310610133831016604e8410600b8410161715610b945782820a905083811115610b8f57610b8e610a63565b5b610bbe565b610ba18484846001610a9f565b92509050818404811115610bb857610bb7610a63565b5b81810290505b9392505050565b6000610bd0826108e3565b9150610bdb836109a4565b9250610c087fffffffffffffffffffffffffffffffffffffffffffffffffffffffffffffffff8484610af2565b905092915050565b6000610c1b826108e3565b9150610c26836108e3565b9250828202610c34816108e3565b91508282048414831517610c4b57610c4a610a63565b5b5092915050565b7f4e487b7100000000000000000000000000000000000000000000000000000000600052601260045260246000fd5b6000610c8c826108e3565b9150610c97836108e3565b925082610ca757610ca6610c52565b5b828204905092915050565b6000610cbd826108e3565b9150610cc8836108e3565b9250828201905080821115610ce057610cdf610a63565b5b92915050565b600081519050610cf58161094b565b92915050565b600080600060608486031215610d1457610d13610834565b5b6000610d2286828701610ce6565b9350506020610d3386828701610ce6565b9250506040610d4486828701610ce6565b9150509250925092565b600060208284031215610d6457610d63610834565b5b6000610d7284828501610ce6565b91505092915050565b600082825260208201905092915050565b7f496e76616c696420507269636500000000000000000000000000000000000000600082015250565b6000610dc2600d83610d7b565b9150610dcd82610d8c565b602082019050919050565b60006020820190508181036000830152610df181610db5565b905091905056fea2646970667358221220f2825b1f6936f311addefe882d7662f0f71786ab058f16fae3861654b9a94d0564736f6c63430008140033",
  "devdoc": {
    "kind": "dev",
    "methods": {
      "getPrice()": {
        "details": "This function fetches reserves from the AMM and uses a pre-defined price for tokens to calculate the LP token price.",
        "returns": {
          "price": "The price of the liquidity pool token."
        }
      },
      "sqrt(uint256)": {
        "details": "This function uses an iterative method to compute the square root of a number.",
        "params": {
          "x": "The number to compute the square root of."
        },
        "returns": {
          "y": "The square root of the given number."
        }
      }
    },
    "version": 1
  },
  "userdoc": {
    "kind": "user",
    "methods": {
      "getPrice()": {
        "notice": "Gets the price of the liquidity pool token."
      },
      "latestAnswer()": {
        "notice": "Gets the latest price of the liquidity pool token."
      },
      "sqrt(uint256)": {
        "notice": "Computes the square root of a given number using the Babylonian method."
      }
    },
    "version": 1
  },
  "storageLayout": {
    "storage": [],
    "types": null
  }
}