{
  "address": "0xdcaa9005a689b005bBDcf4a93DAcA2f06fcd86a3",
  "abi": [
    {
      "inputs": [
        {
          "internalType": "contract IApi3ProxyConsumer",
          "name": "_marketApiProxy",
          "type": "address"
        }
      ],
      "stateMutability": "nonpayable",
      "type": "constructor"
    },
    {
      "inputs": [],
      "name": "InvalidOraclePrice",
      "type": "error"
    },
    {
      "inputs": [],
      "name": "latestAnswer",
      "outputs": [
        {
          "internalType": "int256",
          "name": "price",
          "type": "int256"
        }
      ],
      "stateMutability": "view",
      "type": "function"
    }
  ],
  "transactionHash": "0x54a992d0a1e1a1f866bc427345ea25142a3281d8fef44e2bd62ba4834ec85503",
  "args": [
    "0xd8974Cf167718Db149aB9cCccFdE5e244dDA39De"
  ],
  "numDeployments": 1,
  "solcInputHash": "4b66b4869ea08ba7b40637c961b6e8e7",
  "bytecode": "0x608060405234801561001057600080fd5b50604051610415380380610415833981810160405281019061003291906100ed565b806000806101000a81548173ffffffffffffffffffffffffffffffffffffffff021916908373ffffffffffffffffffffffffffffffffffffffff1602179055505061011a565b600080fd5b600073ffffffffffffffffffffffffffffffffffffffff82169050919050565b60006100a88261007d565b9050919050565b60006100ba8261009d565b9050919050565b6100ca816100af565b81146100d557600080fd5b50565b6000815190506100e7816100c1565b92915050565b60006020828403121561010357610102610078565b5b6000610111848285016100d8565b91505092915050565b6102ec806101296000396000f3fe608060405234801561001057600080fd5b506004361061002b5760003560e01c806350d25bcd14610030575b600080fd5b61003861004e565b6040516100459190610119565b60405180910390f35b60008060009054906101000a900473ffffffffffffffffffffffffffffffffffffffff1673ffffffffffffffffffffffffffffffffffffffff166357de26a46040518163ffffffff1660e01b81526004016040805180830381865afa1580156100bb573d6000803e3d6000fd5b505050506040513d601f19601f820116820180604052508101906100df91906101ae565b81601b0b915050809150506402540be400816100fb919061024c565b905090565b6000819050919050565b61011381610100565b82525050565b600060208201905061012e600083018461010a565b92915050565b600080fd5b600081601b0b9050919050565b61014f81610139565b811461015a57600080fd5b50565b60008151905061016c81610146565b92915050565b600063ffffffff82169050919050565b61018b81610172565b811461019657600080fd5b50565b6000815190506101a881610182565b92915050565b600080604083850312156101c5576101c4610134565b5b60006101d38582860161015d565b92505060206101e485828601610199565b9150509250929050565b7f4e487b7100000000000000000000000000000000000000000000000000000000600052601260045260246000fd5b7f4e487b7100000000000000000000000000000000000000000000000000000000600052601160045260246000fd5b600061025782610100565b915061026283610100565b925082610272576102716101ee565b5b600160000383147f8000000000000000000000000000000000000000000000000000000000000000831416156102ab576102aa61021d565b5b82820590509291505056fea264697066735822122016bd72c0fc32847a002026bf40b5502fa9aa438ae7df47e25360f78b09ff94b164736f6c63430008140033",
  "devdoc": {
    "kind": "dev",
    "methods": {},
    "version": 1
  },
  "userdoc": {
    "kind": "user",
    "methods": {},
    "version": 1
  },
  "storageLayout": {
    "storage": [
      {
        "astId": 447,
        "contract": "contracts/api3/Api3Aggregator.sol:Api3Aggregator",
        "label": "marketApiProxy",
        "offset": 0,
        "slot": "0",
        "type": "t_contract(IApi3ProxyConsumer)675"
      }
    ],
    "types": {
      "t_contract(IApi3ProxyConsumer)675": {
        "encoding": "inplace",
        "label": "contract IApi3ProxyConsumer",
        "numberOfBytes": "20"
      }
    }
  }
}