{
  "address": "0xa914840C0a23D7b692d1E94F88c01974De305aA1",
  "abi": [
    {
      "inputs": [],
      "stateMutability": "nonpayable",
      "type": "constructor"
    },
    {
      "inputs": [],
      "name": "TwapDurationTooLow",
      "type": "error"
    },
    {
      "inputs": [],
      "name": "BASE_18",
      "outputs": [
        {
          "internalType": "uint256",
          "name": "",
          "type": "uint256"
        }
      ],
      "stateMutability": "view",
      "type": "function"
    },
    {
      "inputs": [],
      "name": "UNIT",
      "outputs": [
        {
          "internalType": "uint256",
          "name": "",
          "type": "uint256"
        }
      ],
      "stateMutability": "view",
      "type": "function"
    },
    {
      "inputs": [],
      "name": "YEAR",
      "outputs": [
        {
          "internalType": "uint256",
          "name": "",
          "type": "uint256"
        }
      ],
      "stateMutability": "view",
      "type": "function"
    },
    {
      "inputs": [],
      "name": "asset",
      "outputs": [
        {
          "internalType": "address",
          "name": "",
          "type": "address"
        }
      ],
      "stateMutability": "pure",
      "type": "function"
    },
    {
      "inputs": [],
      "name": "decimals",
      "outputs": [
        {
          "internalType": "uint8",
          "name": "",
          "type": "uint8"
        }
      ],
      "stateMutability": "pure",
      "type": "function"
    },
    {
      "inputs": [],
      "name": "description",
      "outputs": [
        {
          "internalType": "string",
          "name": "",
          "type": "string"
        }
      ],
      "stateMutability": "view",
      "type": "function"
    },
    {
      "inputs": [],
      "name": "latestAnswer",
      "outputs": [
        {
          "internalType": "int256",
          "name": "",
          "type": "int256"
        }
      ],
      "stateMutability": "view",
      "type": "function"
    },
    {
      "inputs": [],
      "name": "market",
      "outputs": [
        {
          "internalType": "address",
          "name": "",
          "type": "address"
        }
      ],
      "stateMutability": "pure",
      "type": "function"
    },
    {
      "inputs": [],
      "name": "maturity",
      "outputs": [
        {
          "internalType": "uint256",
          "name": "",
          "type": "uint256"
        }
      ],
      "stateMutability": "pure",
      "type": "function"
    },
    {
      "inputs": [],
      "name": "maxLowerBound",
      "outputs": [
        {
          "internalType": "uint256",
          "name": "",
          "type": "uint256"
        }
      ],
      "stateMutability": "view",
      "type": "function"
    },
    {
      "inputs": [],
      "name": "maxUpperBound",
      "outputs": [
        {
          "internalType": "uint256",
          "name": "",
          "type": "uint256"
        }
      ],
      "stateMutability": "view",
      "type": "function"
    },
    {
      "inputs": [],
      "name": "oracle",
      "outputs": [
        {
          "internalType": "contract IAaveOracle",
          "name": "",
          "type": "address"
        }
      ],
      "stateMutability": "view",
      "type": "function"
    },
    {
      "inputs": [],
      "name": "rawPrice",
      "outputs": [
        {
          "internalType": "uint256",
          "name": "",
          "type": "uint256"
        }
      ],
      "stateMutability": "view",
      "type": "function"
    },
    {
      "inputs": [],
      "name": "sy",
      "outputs": [
        {
          "internalType": "address",
          "name": "",
          "type": "address"
        }
      ],
      "stateMutability": "pure",
      "type": "function"
    },
    {
      "inputs": [],
      "name": "twapDuration",
      "outputs": [
        {
          "internalType": "uint32",
          "name": "",
          "type": "uint32"
        }
      ],
      "stateMutability": "view",
      "type": "function"
    },
    {
      "inputs": [],
      "name": "usdPrice",
      "outputs": [
        {
          "internalType": "uint256",
          "name": "",
          "type": "uint256"
        }
      ],
      "stateMutability": "view",
      "type": "function"
    }
  ],
  "transactionHash": "0xdc1f23fdbe82a896be04b330a8ccb7a38324e0ec42462ade6350217630fa83f8",
  "args": [],
  "numDeployments": 1,
  "solcInputHash": "2ef3c483af3037244801fcfa7260d41f",
  "bytecode": "0x61010060405234801561001157600080fd5b50670bcbce7f1b150000670e92596fd629000061070873ad19a55354614913b373e01da768ab679ac4da41670de0b6b3a7640000848484836103848263ffffffff16101561008b576040517fd72bb8f000000000000000000000000000000000000000000000000000000000815260040160405180910390fd5b83608081815250508163ffffffff1660c08163ffffffff16815250508260a081815250508060e0818152505050505050816000806101000a81548173ffffffffffffffffffffffffffffffffffffffff021916908373ffffffffffffffffffffffffffffffffffffffff160217905550505050505060805160a05160c05160e05161209f61017f600039600081816105180152818161068a0152818161077a015281816108b501526108f001526000818161030f0152818161058301526105bf0152600081816103a60152818161063a01526106600152600081816104d0015281816105e9015261060f015261209f6000f3fe608060405234801561001057600080fd5b50600436106101005760003560e01c80636619aa861161009757806380f556051161006657806380f556051461026d578063839145401461028b5780639d8e2177146102a9578063d965a5d2146102c757610100565b80636619aa86146101f55780637284e416146102135780637dc0d1d0146102315780637e8b2d551461024f57610100565b806338d52e0f116100d357806338d52e0f1461017d57806350d25bcd1461019b57806353046919146101b95780635e074007146101d757610100565b8063181cc05b14610105578063204f83f91461012357806326d8954514610141578063313ce5671461015f575b600080fd5b61010d6102e5565b60405161011a91906115c2565b60405180910390f35b61012b610301565b60405161013891906115f6565b60405180910390f35b61014961030d565b6040516101569190611630565b60405180910390f35b610167610331565b6040516101749190611667565b60405180910390f35b61018561033a565b60405161019291906115c2565b60405180910390f35b6101a3610356565b6040516101b0919061169b565b60405180910390f35b6101c1610395565b6040516101ce91906115f6565b60405180910390f35b6101df6103a4565b6040516101ec91906115f6565b60405180910390f35b6101fd6103c8565b60405161020a91906115f6565b60405180910390f35b61021b610471565b6040516102289190611746565b60405180910390f35b6102396104aa565b60405161024691906117c7565b60405180910390f35b6102576104ce565b60405161026491906115f6565b60405180910390f35b6102756104f2565b60405161028291906115c2565b60405180910390f35b61029361050e565b6040516102a091906115f6565b60405180910390f35b6102b1610516565b6040516102be91906115f6565b60405180910390f35b6102cf61053a565b6040516102dc91906115f6565b60405180910390f35b6000737acdf2012aac69d70b86677fe91eb66e08961880905090565b600063676c9c80905090565b7f000000000000000000000000000000000000000000000000000000000000000081565b60006008905090565b600073657e8c867d8b37dcc18fa4caead9c45eb088c642905090565b600080610361610546565b9050600061036d6103c8565b9050670de0b6b3a764000081836103849190611811565b61038e91906118b8565b9250505090565b600061039f610546565b905090565b7f000000000000000000000000000000000000000000000000000000000000000081565b60008060009054906101000a900473ffffffffffffffffffffffffffffffffffffffff1673ffffffffffffffffffffffffffffffffffffffff1663b3596f0761040f61033a565b6040518263ffffffff1660e01b815260040161042b91906115c2565b602060405180830381865afa158015610448573d6000803e3d6000fd5b505050506040513d601f19601f8201168201806040525081019061046c9190611962565b905090565b6040518060400160405280601281526020017f50542d654254432f555344204f7261636c65000000000000000000000000000081525081565b60008054906101000a900473ffffffffffffffffffffffffffffffffffffffff1681565b7f000000000000000000000000000000000000000000000000000000000000000081565b60007336d3ca43ae7939645c306e26603ce16e39a89192905090565b6301e1338081565b7f000000000000000000000000000000000000000000000000000000000000000081565b670de0b6b3a764000081565b60006105b06040518060400160405280600481526020017f74776170000000000000000000000000000000000000000000000000000000008152507f000000000000000000000000000000000000000000000000000000000000000063ffffffff166103846106cc565b60006105e36105bd6104f2565b7f000000000000000000000000000000000000000000000000000000000000000061076b565b509050807f000000000000000000000000000000000000000000000000000000000000000010610633577f0000000000000000000000000000000000000000000000000000000000000000610635565b805b9050807f000000000000000000000000000000000000000000000000000000000000000011610684577f0000000000000000000000000000000000000000000000000000000000000000610686565b805b90507f0000000000000000000000000000000000000000000000000000000000000000816106b26107a4565b6106bc919061198f565b6106c691906119d1565b91505090565b6107668383836040516024016106e493929190611a02565b6040516020818303038152906040527fca47c4eb000000000000000000000000000000000000000000000000000000007bffffffffffffffffffffffffffffffffffffffffffffffffffffffff19166020820180517bffffffffffffffffffffffffffffffffffffffffffffffffffffffff8381831617835250505050610917565b505050565b6000806107788484610931565b7f0000000000000000000000000000000000000000000000000000000000000000915091509250929050565b6000806107af61033a565b73ffffffffffffffffffffffffffffffffffffffff166370a082316107d26102e5565b6040518263ffffffff1660e01b81526004016107ee91906115c2565b602060405180830381865afa15801561080b573d6000803e3d6000fd5b505050506040513d601f19601f8201168201806040525081019061082f9190611962565b9050600061083b6102e5565b73ffffffffffffffffffffffffffffffffffffffff166318160ddd6040518163ffffffff1660e01b8152600401602060405180830381865afa158015610885573d6000803e3d6000fd5b505050506040513d601f19601f820116820180604052508101906108a99190611962565b90508082116108ee57807f0000000000000000000000000000000000000000000000000000000000000000836108df919061198f565b6108e991906119d1565b610910565b7f00000000000000000000000000000000000000000000000000000000000000005b9250505090565b61092e816109266109886109a9565b63ffffffff16565b50565b600080600061093f856109b4565b9150915080821061095d576109548585610c2e565b92505050610982565b80826109698787610c2e565b610973919061198f565b61097d91906119d1565b925050505b92915050565b60006a636f6e736f6c652e6c6f679050600080835160208501845afa505050565b611577819050919050565b6000806000808473ffffffffffffffffffffffffffffffffffffffff16632c8ce6bc6040518163ffffffff1660e01b8152600401606060405180830381865afa158015610a05573d6000803e3d6000fd5b505050506040513d601f19601f82011682018060405250810190610a299190611afa565b92505091508173ffffffffffffffffffffffffffffffffffffffff16633ba0b9a96040518163ffffffff1660e01b8152600401602060405180830381865afa158015610a79573d6000803e3d6000fd5b505050506040513d601f19601f82011682018060405250810190610a9d9190611962565b935060008173ffffffffffffffffffffffffffffffffffffffff1663d2a3584e6040518163ffffffff1660e01b8152600401602060405180830381865afa158015610aec573d6000803e3d6000fd5b505050506040513d601f19601f82011682018060405250810190610b109190611962565b90508173ffffffffffffffffffffffffffffffffffffffff1663516399df6040518163ffffffff1660e01b8152600401602060405180830381865afa158015610b5d573d6000803e3d6000fd5b505050506040513d601f19601f82011682018060405250810190610b819190611b85565b8015610c0c5750438273ffffffffffffffffffffffffffffffffffffffff166360e0a9e16040518163ffffffff1660e01b8152600401602060405180830381865afa158015610bd4573d6000803e3d6000fd5b505050506040513d601f19601f82011682018060405250810190610bf89190611bfa565b6fffffffffffffffffffffffffffffffff16145b15610c1957809350610c26565b610c238582610d16565b93505b505050915091565b6000808373ffffffffffffffffffffffffffffffffffffffff1663e184c9be6040518163ffffffff1660e01b8152600401602060405180830381865afa158015610c7c573d6000803e3d6000fd5b505050506040513d601f19601f82011682018060405250810190610ca09190611962565b9050428111610cba57670de0b6b3a7640000915050610d10565b6000610cc68585610d2f565b905060004283610cd69190611c27565b90506000610cec610ce78484610eaa565b610ef0565b9050610d0981670de0b6b3a7640000610f0790919063ffffffff16565b9450505050505b92915050565b6000818311610d255781610d27565b825b905092915050565b600080600267ffffffffffffffff811115610d4d57610d4c611c5b565b5b604051908082528060200260200182016040528015610d7b5781602001602082028036833780820191505090505b5090508281600081518110610d9357610d92611c8a565b5b602002602001019063ffffffff16908163ffffffff168152505060008473ffffffffffffffffffffffffffffffffffffffff1663883bdbfd836040518263ffffffff1660e01b8152600401610de89190611d77565b600060405180830381865afa158015610e05573d6000803e3d6000fd5b505050506040513d6000823e3d601f19601f82011682018060405250810190610e2e9190611f05565b90508363ffffffff1681600081518110610e4b57610e4a611c8a565b5b602002602001015182600181518110610e6757610e66611c8a565b5b6020026020010151610e799190611f4e565b610e839190611f9d565b7affffffffffffffffffffffffffffffffffffffffffffffffffffff169250505092915050565b6000806201518061016d610ebe919061198f565b8385610eca919061198f565b610ed491906119d1565b9050610ee7610ee282610f3a565b610f71565b91505092915050565b600080821215610eff57600080fd5b819050919050565b600080670de0b6b3a764000084610f1e919061198f565b9050828181610f3057610f2f611889565b5b0491505092915050565b60007f7fffffffffffffffffffffffffffffffffffffffffffffffffffffffffffffff821115610f6957600080fd5b819050919050565b60007ffffffffffffffffffffffffffffffffffffffffffffffffdc702bd3a30fc00008212158015610fac575068070c1cc73b00c800008213155b610feb576040517f08c379a0000000000000000000000000000000000000000000000000000000008152600401610fe29061201a565b60405180910390fd5b60008212156110215761100082600003610f71565b670de0b6b3a764000080028161101957611018611889565b5b059050611572565b60006806f05b59d3b20000008312611061576806f05b59d3b200000083039250770195e54c5dd42177f53a27172fa9ec6302628270000000009050611099565b6803782dace9d90000008312611093576803782dace9d9000000830392506b1425982cf597cd205cef73809050611098565b600190505b5b606483029250600068056bc75e2d63100000905068ad78ebc5ac6200000084126110f95768ad78ebc5ac620000008403935068056bc75e2d631000006e01855144814a7ff805980ff00840008202816110f5576110f4611889565b5b0590505b6856bc75e2d6310000008412611142576856bc75e2d6310000008403935068056bc75e2d631000006b02df0ab5a80a22c61ab5a70082028161113e5761113d611889565b5b0590505b682b5e3af16b18800000841261118957682b5e3af16b188000008403935068056bc75e2d63100000693f1fce3da636ea5cf85082028161118557611184611889565b5b0590505b6815af1d78b58c40000084126111d0576815af1d78b58c4000008403935068056bc75e2d63100000690127fa27722cc06cc5e28202816111cc576111cb611889565b5b0590505b680ad78ebc5ac6200000841261121657680ad78ebc5ac62000008403935068056bc75e2d6310000068280e60114edb805d0382028161121257611211611889565b5b0590505b68056bc75e2d63100000841261125c5768056bc75e2d631000008403935068056bc75e2d63100000680ebc5fb4174612111082028161125857611257611889565b5b0590505b6802b5e3af16b188000084126112a2576802b5e3af16b18800008403935068056bc75e2d631000006808f00f760a4b2db55d82028161129e5761129d611889565b5b0590505b68015af1d78b58c4000084126112e85768015af1d78b58c400008403935068056bc75e2d631000006806f5f17757889379378202816112e4576112e3611889565b5b0590505b600068056bc75e2d63100000905060008590508082019150600268056bc75e2d631000008783028161131d5761131c611889565b5b058161132c5761132b611889565b5b0590508082019150600368056bc75e2d631000008783028161135157611350611889565b5b05816113605761135f611889565b5b0590508082019150600468056bc75e2d631000008783028161138557611384611889565b5b058161139457611393611889565b5b0590508082019150600568056bc75e2d63100000878302816113b9576113b8611889565b5b05816113c8576113c7611889565b5b0590508082019150600668056bc75e2d63100000878302816113ed576113ec611889565b5b05816113fc576113fb611889565b5b0590508082019150600768056bc75e2d631000008783028161142157611420611889565b5b05816114305761142f611889565b5b0590508082019150600868056bc75e2d631000008783028161145557611454611889565b5b058161146457611463611889565b5b0590508082019150600968056bc75e2d631000008783028161148957611488611889565b5b058161149857611497611889565b5b0590508082019150600a68056bc75e2d63100000878302816114bd576114bc611889565b5b05816114cc576114cb611889565b5b0590508082019150600b68056bc75e2d63100000878302816114f1576114f0611889565b5b0581611500576114ff611889565b5b0590508082019150600c68056bc75e2d631000008783028161152557611524611889565b5b058161153457611533611889565b5b059050808201915060648468056bc75e2d631000008486028161155a57611559611889565b5b05028161156a57611569611889565b5b059450505050505b919050565b61157f61203a565b565b600073ffffffffffffffffffffffffffffffffffffffff82169050919050565b60006115ac82611581565b9050919050565b6115bc816115a1565b82525050565b60006020820190506115d760008301846115b3565b92915050565b6000819050919050565b6115f0816115dd565b82525050565b600060208201905061160b60008301846115e7565b92915050565b600063ffffffff82169050919050565b61162a81611611565b82525050565b60006020820190506116456000830184611621565b92915050565b600060ff82169050919050565b6116618161164b565b82525050565b600060208201905061167c6000830184611658565b92915050565b6000819050919050565b61169581611682565b82525050565b60006020820190506116b0600083018461168c565b92915050565b600081519050919050565b600082825260208201905092915050565b60005b838110156116f05780820151818401526020810190506116d5565b60008484015250505050565b6000601f19601f8301169050919050565b6000611718826116b6565b61172281856116c1565b93506117328185602086016116d2565b61173b816116fc565b840191505092915050565b60006020820190508181036000830152611760818461170d565b905092915050565b6000819050919050565b600061178d61178861178384611581565b611768565b611581565b9050919050565b600061179f82611772565b9050919050565b60006117b182611794565b9050919050565b6117c1816117a6565b82525050565b60006020820190506117dc60008301846117b8565b92915050565b7f4e487b7100000000000000000000000000000000000000000000000000000000600052601160045260246000fd5b600061181c82611682565b915061182783611682565b925082820261183581611682565b91507f8000000000000000000000000000000000000000000000000000000000000000841460008412161561186d5761186c6117e2565b5b8282058414831517611882576118816117e2565b5b5092915050565b7f4e487b7100000000000000000000000000000000000000000000000000000000600052601260045260246000fd5b60006118c382611682565b91506118ce83611682565b9250826118de576118dd611889565b5b600160000383147f800000000000000000000000000000000000000000000000000000000000000083141615611917576119166117e2565b5b828205905092915050565b6000604051905090565b600080fd5b600080fd5b61193f816115dd565b811461194a57600080fd5b50565b60008151905061195c81611936565b92915050565b6000602082840312156119785761197761192c565b5b60006119868482850161194d565b91505092915050565b600061199a826115dd565b91506119a5836115dd565b92508282026119b3816115dd565b915082820484148315176119ca576119c96117e2565b5b5092915050565b60006119dc826115dd565b91506119e7836115dd565b9250826119f7576119f6611889565b5b828204905092915050565b60006060820190508181036000830152611a1c818661170d565b9050611a2b60208301856115e7565b611a3860408301846115e7565b949350505050565b6000611a4b826115a1565b9050919050565b611a5b81611a40565b8114611a6657600080fd5b50565b600081519050611a7881611a52565b92915050565b6000611a89826115a1565b9050919050565b611a9981611a7e565b8114611aa457600080fd5b50565b600081519050611ab681611a90565b92915050565b6000611ac7826115a1565b9050919050565b611ad781611abc565b8114611ae257600080fd5b50565b600081519050611af481611ace565b92915050565b600080600060608486031215611b1357611b1261192c565b5b6000611b2186828701611a69565b9350506020611b3286828701611aa7565b9250506040611b4386828701611ae5565b9150509250925092565b60008115159050919050565b611b6281611b4d565b8114611b6d57600080fd5b50565b600081519050611b7f81611b59565b92915050565b600060208284031215611b9b57611b9a61192c565b5b6000611ba984828501611b70565b91505092915050565b60006fffffffffffffffffffffffffffffffff82169050919050565b611bd781611bb2565b8114611be257600080fd5b50565b600081519050611bf481611bce565b92915050565b600060208284031215611c1057611c0f61192c565b5b6000611c1e84828501611be5565b91505092915050565b6000611c32826115dd565b9150611c3d836115dd565b9250828203905081811115611c5557611c546117e2565b5b92915050565b7f4e487b7100000000000000000000000000000000000000000000000000000000600052604160045260246000fd5b7f4e487b7100000000000000000000000000000000000000000000000000000000600052603260045260246000fd5b600081519050919050565b600082825260208201905092915050565b6000819050602082019050919050565b611cee81611611565b82525050565b6000611d008383611ce5565b60208301905092915050565b6000602082019050919050565b6000611d2482611cb9565b611d2e8185611cc4565b9350611d3983611cd5565b8060005b83811015611d6a578151611d518882611cf4565b9750611d5c83611d0c565b925050600181019050611d3d565b5085935050505092915050565b60006020820190508181036000830152611d918184611d19565b905092915050565b600080fd5b611da7826116fc565b810181811067ffffffffffffffff82111715611dc657611dc5611c5b565b5b80604052505050565b6000611dd9611922565b9050611de58282611d9e565b919050565b600067ffffffffffffffff821115611e0557611e04611c5b565b5b602082029050602081019050919050565b600080fd5b60007affffffffffffffffffffffffffffffffffffffffffffffffffffff82169050919050565b611e4b81611e1b565b8114611e5657600080fd5b50565b600081519050611e6881611e42565b92915050565b6000611e81611e7c84611dea565b611dcf565b90508083825260208201905060208402830185811115611ea457611ea3611e16565b5b835b81811015611ecd5780611eb98882611e59565b845260208401935050602081019050611ea6565b5050509392505050565b600082601f830112611eec57611eeb611d99565b5b8151611efc848260208601611e6e565b91505092915050565b600060208284031215611f1b57611f1a61192c565b5b600082015167ffffffffffffffff811115611f3957611f38611931565b5b611f4584828501611ed7565b91505092915050565b6000611f5982611e1b565b9150611f6483611e1b565b925082820390507affffffffffffffffffffffffffffffffffffffffffffffffffffff811115611f9757611f966117e2565b5b92915050565b6000611fa882611e1b565b9150611fb383611e1b565b925082611fc357611fc2611889565b5b828204905092915050565b7f496e76616c6964206578706f6e656e7400000000000000000000000000000000600082015250565b60006120046010836116c1565b915061200f82611fce565b602082019050919050565b6000602082019050818103600083015261203381611ff7565b9050919050565b7f4e487b7100000000000000000000000000000000000000000000000000000000600052605160045260246000fdfea2646970667358221220def5a7ed1d10a2cdf05bec57671819f0b0a43c0fe3c7beed2d6127810367d94664736f6c63430008140033",
  "devdoc": {
    "author": "Zerolend.",
    "kind": "dev",
    "methods": {
      "latestAnswer()": {
        "details": "This function gives the latest answer in 8 decimals."
      }
    },
    "title": "PTeBTCDec262024Oracle",
    "version": 1
  },
  "userdoc": {
    "kind": "user",
    "methods": {
      "oracle()": {
        "notice": "The address of the asset to USD aggregator"
      },
      "twapDuration()": {
        "notice": "The duration of the TWAP used to calculate the PT price"
      }
    },
    "notice": "Gives the price of PT-eBTC in ETH in base 8",
    "version": 1
  },
  "storageLayout": {
    "storage": [
      {
        "astId": 5397,
        "contract": "contracts/pendle/implementations/mainnet/PTeBTCDec262024Oracle.sol:PTeBTCDec262024Oracle",
        "label": "oracle",
        "offset": 0,
        "slot": "0",
        "type": "t_contract(IAaveOracle)5388"
      }
    ],
    "types": {
      "t_contract(IAaveOracle)5388": {
        "encoding": "inplace",
        "label": "contract IAaveOracle",
        "numberOfBytes": "20"
      }
    }
  }
}