{
  "address": "0xe06Aa134e8E3a207388521eD494f99811A73abAA",
  "abi": [
    {
      "inputs": [],
      "stateMutability": "nonpayable",
      "type": "constructor"
    },
    {
      "inputs": [],
      "name": "TwapDurationTooLow",
      "type": "error"
    },
    {
      "inputs": [],
      "name": "BASE_18",
      "outputs": [
        {
          "internalType": "uint256",
          "name": "",
          "type": "uint256"
        }
      ],
      "stateMutability": "view",
      "type": "function"
    },
    {
      "inputs": [],
      "name": "UNIT",
      "outputs": [
        {
          "internalType": "uint256",
          "name": "",
          "type": "uint256"
        }
      ],
      "stateMutability": "view",
      "type": "function"
    },
    {
      "inputs": [],
      "name": "YEAR",
      "outputs": [
        {
          "internalType": "uint256",
          "name": "",
          "type": "uint256"
        }
      ],
      "stateMutability": "view",
      "type": "function"
    },
    {
      "inputs": [],
      "name": "asset",
      "outputs": [
        {
          "internalType": "contract IERC20",
          "name": "",
          "type": "address"
        }
      ],
      "stateMutability": "view",
      "type": "function"
    },
    {
      "inputs": [],
      "name": "decimals",
      "outputs": [
        {
          "internalType": "uint8",
          "name": "",
          "type": "uint8"
        }
      ],
      "stateMutability": "pure",
      "type": "function"
    },
    {
      "inputs": [],
      "name": "description",
      "outputs": [
        {
          "internalType": "string",
          "name": "",
          "type": "string"
        }
      ],
      "stateMutability": "view",
      "type": "function"
    },
    {
      "inputs": [],
      "name": "enableBalanceCheck",
      "outputs": [
        {
          "internalType": "bool",
          "name": "",
          "type": "bool"
        }
      ],
      "stateMutability": "view",
      "type": "function"
    },
    {
      "inputs": [],
      "name": "latestAnswer",
      "outputs": [
        {
          "internalType": "int256",
          "name": "",
          "type": "int256"
        }
      ],
      "stateMutability": "view",
      "type": "function"
    },
    {
      "inputs": [],
      "name": "market",
      "outputs": [
        {
          "internalType": "contract IPMarket",
          "name": "",
          "type": "address"
        }
      ],
      "stateMutability": "view",
      "type": "function"
    },
    {
      "inputs": [],
      "name": "maturity",
      "outputs": [
        {
          "internalType": "uint256",
          "name": "",
          "type": "uint256"
        }
      ],
      "stateMutability": "view",
      "type": "function"
    },
    {
      "inputs": [],
      "name": "maxLowerBound",
      "outputs": [
        {
          "internalType": "uint256",
          "name": "",
          "type": "uint256"
        }
      ],
      "stateMutability": "view",
      "type": "function"
    },
    {
      "inputs": [],
      "name": "maxUpperBound",
      "outputs": [
        {
          "internalType": "uint256",
          "name": "",
          "type": "uint256"
        }
      ],
      "stateMutability": "view",
      "type": "function"
    },
    {
      "inputs": [],
      "name": "oracle",
      "outputs": [
        {
          "internalType": "contract IAaveOracle",
          "name": "",
          "type": "address"
        }
      ],
      "stateMutability": "view",
      "type": "function"
    },
    {
      "inputs": [],
      "name": "rawPrice",
      "outputs": [
        {
          "internalType": "uint256",
          "name": "",
          "type": "uint256"
        }
      ],
      "stateMutability": "view",
      "type": "function"
    },
    {
      "inputs": [],
      "name": "sy",
      "outputs": [
        {
          "internalType": "contract IStandardizedYield",
          "name": "",
          "type": "address"
        }
      ],
      "stateMutability": "view",
      "type": "function"
    },
    {
      "inputs": [],
      "name": "twapDuration",
      "outputs": [
        {
          "internalType": "uint32",
          "name": "",
          "type": "uint32"
        }
      ],
      "stateMutability": "view",
      "type": "function"
    },
    {
      "inputs": [],
      "name": "usdPrice",
      "outputs": [
        {
          "internalType": "uint256",
          "name": "",
          "type": "uint256"
        }
      ],
      "stateMutability": "view",
      "type": "function"
    }
  ],
  "transactionHash": "0x23c88bd64d1fb9172d4926f5c941c417baa16d725f374a823faf7ceafa8d67f4",
  "args": [],
  "numDeployments": 1,
  "solcInputHash": "cc0062939cd644dedfd18d54af0bd65c",
  "bytecode": "0x610180604052670de0b6b3a764000060e0908152503480156200002157600080fd5b50670bcbce7f1b150000670de0b6b3a7640000611c207370b70ac0445c3ef04e314dfda6caafd82542822173ad19a55354614913b373e01da768ab679ac4da41600185858585846103848363ffffffff161015620000ab576040517fd72bb8f000000000000000000000000000000000000000000000000000000000815260040160405180910390fd5b84608081815250508263ffffffff1660c08163ffffffff16815250508360a08181525050806000806101000a81548160ff0219169083151502179055508173ffffffffffffffffffffffffffffffffffffffff166101408173ffffffffffffffffffffffffffffffffffffffff16815250506101405173ffffffffffffffffffffffffffffffffffffffff16632c8ce6bc6040518163ffffffff1660e01b8152600401606060405180830381865afa1580156200016c573d6000803e3d6000fd5b505050506040513d601f19601f820116820180604052508101906200019291906200044a565b9050508073ffffffffffffffffffffffffffffffffffffffff166101209073ffffffffffffffffffffffffffffffffffffffff16815250506101205173ffffffffffffffffffffffffffffffffffffffff166376d5de856040518163ffffffff1660e01b8152600401602060405180830381865afa15801562000219573d6000803e3d6000fd5b505050506040513d601f19601f820116820180604052508101906200023f9190620004d7565b73ffffffffffffffffffffffffffffffffffffffff166101008173ffffffffffffffffffffffffffffffffffffffff16815250506101405173ffffffffffffffffffffffffffffffffffffffff1663e184c9be6040518163ffffffff1660e01b8152600401602060405180830381865afa158015620002c2573d6000803e3d6000fd5b505050506040513d601f19601f82011682018060405250810190620002e8919062000544565b6101608181525050505050505081600060016101000a81548173ffffffffffffffffffffffffffffffffffffffff021916908373ffffffffffffffffffffffffffffffffffffffff16021790555050505050505062000576565b600080fd5b600073ffffffffffffffffffffffffffffffffffffffff82169050919050565b6000620003748262000347565b9050919050565b6000620003888262000367565b9050919050565b6200039a816200037b565b8114620003a657600080fd5b50565b600081519050620003ba816200038f565b92915050565b6000620003cd8262000367565b9050919050565b620003df81620003c0565b8114620003eb57600080fd5b50565b600081519050620003ff81620003d4565b92915050565b6000620004128262000367565b9050919050565b620004248162000405565b81146200043057600080fd5b50565b600081519050620004448162000419565b92915050565b60008060006060848603121562000466576200046562000342565b5b60006200047686828701620003a9565b93505060206200048986828701620003ee565b92505060406200049c8682870162000433565b9150509250925092565b620004b18162000367565b8114620004bd57600080fd5b50565b600081519050620004d181620004a6565b92915050565b600060208284031215620004f057620004ef62000342565b5b60006200050084828501620004c0565b91505092915050565b6000819050919050565b6200051e8162000509565b81146200052a57600080fd5b50565b6000815190506200053e8162000513565b92915050565b6000602082840312156200055d576200055c62000342565b5b60006200056d848285016200052d565b91505092915050565b60805160a05160c05160e051610100516101205161014051610160516120de62000645600039600061033401526000818161056001526105d3015260008181610310015281816107b701526108390152600081816103850152818161045a015261077b01526000818161059d015281816106bf0152818161071001528181610751015281816108d2015261090d01526000818161035801526105f40152600081816103f70152818161066f015261069501526000818161053c0152818161061e015261064401526120de6000f3fe608060405234801561001057600080fd5b506004361061010b5760003560e01c80636619aa86116100a257806380f556051161007157806380f55605146102785780638391454014610296578063898e76e1146102b45780639d8e2177146102d2578063d965a5d2146102f05761010b565b80636619aa86146102005780637284e4161461021e5780637dc0d1d01461023c5780637e8b2d551461025a5761010b565b806338d52e0f116100de57806338d52e0f1461018857806350d25bcd146101a657806353046919146101c45780635e074007146101e25761010b565b8063181cc05b14610110578063204f83f91461012e57806326d895451461014c578063313ce5671461016a575b600080fd5b61011861030e565b60405161012591906115ce565b60405180910390f35b610136610332565b6040516101439190611602565b60405180910390f35b610154610356565b604051610161919061163c565b60405180910390f35b61017261037a565b60405161017f9190611673565b60405180910390f35b610190610383565b60405161019d91906116af565b60405180910390f35b6101ae6103a7565b6040516101bb91906116e3565b60405180910390f35b6101cc6103e6565b6040516101d99190611602565b60405180910390f35b6101ea6103f5565b6040516101f79190611602565b60405180910390f35b610208610419565b6040516102159190611602565b60405180910390f35b6102266104db565b604051610233919061178e565b60405180910390f35b610244610514565b60405161025191906117d1565b60405180910390f35b61026261053a565b60405161026f9190611602565b60405180910390f35b61028061055e565b60405161028d919061180d565b60405180910390f35b61029e610582565b6040516102ab9190611602565b60405180910390f35b6102bc61058a565b6040516102c99190611843565b60405180910390f35b6102da61059b565b6040516102e79190611602565b60405180910390f35b6102f86105bf565b6040516103059190611602565b60405180910390f35b7f000000000000000000000000000000000000000000000000000000000000000081565b7f000000000000000000000000000000000000000000000000000000000000000081565b7f000000000000000000000000000000000000000000000000000000000000000081565b60006008905090565b7f000000000000000000000000000000000000000000000000000000000000000081565b6000806103b26105cb565b905060006103be610419565b9050670de0b6b3a764000081836103d5919061188d565b6103df9190611934565b9250505090565b60006103f06105cb565b905090565b7f000000000000000000000000000000000000000000000000000000000000000081565b60008060019054906101000a900473ffffffffffffffffffffffffffffffffffffffff1673ffffffffffffffffffffffffffffffffffffffff1663b3596f077f00000000000000000000000000000000000000000000000000000000000000006040518263ffffffff1660e01b815260040161049591906119bf565b602060405180830381865afa1580156104b2573d6000803e3d6000fd5b505050506040513d601f19601f820116820180604052508101906104d69190611a1a565b905090565b6040518060400160405280601e81526020017f50542d4c4254432f555344204f7261636c65204d61722032372032303235000081525081565b600060019054906101000a900473ffffffffffffffffffffffffffffffffffffffff1681565b7f000000000000000000000000000000000000000000000000000000000000000081565b7f000000000000000000000000000000000000000000000000000000000000000081565b6301e1338081565b60008054906101000a900460ff1681565b7f000000000000000000000000000000000000000000000000000000000000000081565b670de0b6b3a764000081565b6000806106187f00000000000000000000000000000000000000000000000000000000000000007f0000000000000000000000000000000000000000000000000000000000000000610701565b509050807f000000000000000000000000000000000000000000000000000000000000000010610668577f000000000000000000000000000000000000000000000000000000000000000061066a565b805b9050807f0000000000000000000000000000000000000000000000000000000000000000116106b9577f00000000000000000000000000000000000000000000000000000000000000006106bb565b805b90507f0000000000000000000000000000000000000000000000000000000000000000816106e761073a565b6106f19190611a47565b6106fb9190611a89565b91505090565b60008061070e8484610935565b7f0000000000000000000000000000000000000000000000000000000000000000915091509250929050565b60008060009054906101000a900460ff16610777577f00000000000000000000000000000000000000000000000000000000000000009050610932565b60007f000000000000000000000000000000000000000000000000000000000000000073ffffffffffffffffffffffffffffffffffffffff166370a082317f00000000000000000000000000000000000000000000000000000000000000006040518263ffffffff1660e01b81526004016107f291906119bf565b602060405180830381865afa15801561080f573d6000803e3d6000fd5b505050506040513d601f19601f820116820180604052508101906108339190611a1a565b905060007f000000000000000000000000000000000000000000000000000000000000000073ffffffffffffffffffffffffffffffffffffffff166318160ddd6040518163ffffffff1660e01b8152600401602060405180830381865afa1580156108a2573d6000803e3d6000fd5b505050506040513d601f19601f820116820180604052508101906108c69190611a1a565b905080821161090b57807f0000000000000000000000000000000000000000000000000000000000000000836108fc9190611a47565b6109069190611a89565b61092d565b7f00000000000000000000000000000000000000000000000000000000000000005b925050505b90565b60008060006109438561098c565b91509150808210610961576109588585610c06565b92505050610986565b808261096d8787610c06565b6109779190611a47565b6109819190611a89565b925050505b92915050565b6000806000808473ffffffffffffffffffffffffffffffffffffffff16632c8ce6bc6040518163ffffffff1660e01b8152600401606060405180830381865afa1580156109dd573d6000803e3d6000fd5b505050506040513d601f19601f82011682018060405250810190610a019190611b74565b92505091508173ffffffffffffffffffffffffffffffffffffffff16633ba0b9a96040518163ffffffff1660e01b8152600401602060405180830381865afa158015610a51573d6000803e3d6000fd5b505050506040513d601f19601f82011682018060405250810190610a759190611a1a565b935060008173ffffffffffffffffffffffffffffffffffffffff1663d2a3584e6040518163ffffffff1660e01b8152600401602060405180830381865afa158015610ac4573d6000803e3d6000fd5b505050506040513d601f19601f82011682018060405250810190610ae89190611a1a565b90508173ffffffffffffffffffffffffffffffffffffffff1663516399df6040518163ffffffff1660e01b8152600401602060405180830381865afa158015610b35573d6000803e3d6000fd5b505050506040513d601f19601f82011682018060405250810190610b599190611bf3565b8015610be45750438273ffffffffffffffffffffffffffffffffffffffff166360e0a9e16040518163ffffffff1660e01b8152600401602060405180830381865afa158015610bac573d6000803e3d6000fd5b505050506040513d601f19601f82011682018060405250810190610bd09190611c68565b6fffffffffffffffffffffffffffffffff16145b15610bf157809350610bfe565b610bfb8582610cee565b93505b505050915091565b6000808373ffffffffffffffffffffffffffffffffffffffff1663e184c9be6040518163ffffffff1660e01b8152600401602060405180830381865afa158015610c54573d6000803e3d6000fd5b505050506040513d601f19601f82011682018060405250810190610c789190611a1a565b9050428111610c9257670de0b6b3a7640000915050610ce8565b6000610c9e8585610d07565b905060004283610cae9190611c95565b90506000610cc4610cbf8484610e82565b610ec8565b9050610ce181670de0b6b3a7640000610edf90919063ffffffff16565b9450505050505b92915050565b6000818311610cfd5781610cff565b825b905092915050565b600080600267ffffffffffffffff811115610d2557610d24611cc9565b5b604051908082528060200260200182016040528015610d535781602001602082028036833780820191505090505b5090508281600081518110610d6b57610d6a611cf8565b5b602002602001019063ffffffff16908163ffffffff168152505060008473ffffffffffffffffffffffffffffffffffffffff1663883bdbfd836040518263ffffffff1660e01b8152600401610dc09190611de5565b600060405180830381865afa158015610ddd573d6000803e3d6000fd5b505050506040513d6000823e3d601f19601f82011682018060405250810190610e069190611f73565b90508363ffffffff1681600081518110610e2357610e22611cf8565b5b602002602001015182600181518110610e3f57610e3e611cf8565b5b6020026020010151610e519190611fbc565b610e5b919061200b565b7affffffffffffffffffffffffffffffffffffffffffffffffffffff169250505092915050565b6000806201518061016d610e969190611a47565b8385610ea29190611a47565b610eac9190611a89565b9050610ebf610eba82610f12565b610f49565b91505092915050565b600080821215610ed757600080fd5b819050919050565b600080670de0b6b3a764000084610ef69190611a47565b9050828181610f0857610f07611905565b5b0491505092915050565b60007f7fffffffffffffffffffffffffffffffffffffffffffffffffffffffffffffff821115610f4157600080fd5b819050919050565b60007ffffffffffffffffffffffffffffffffffffffffffffffffdc702bd3a30fc00008212158015610f84575068070c1cc73b00c800008213155b610fc3576040517f08c379a0000000000000000000000000000000000000000000000000000000008152600401610fba90612088565b60405180910390fd5b6000821215610ff957610fd882600003610f49565b670de0b6b3a7640000800281610ff157610ff0611905565b5b05905061154a565b60006806f05b59d3b20000008312611039576806f05b59d3b200000083039250770195e54c5dd42177f53a27172fa9ec6302628270000000009050611071565b6803782dace9d9000000831261106b576803782dace9d9000000830392506b1425982cf597cd205cef73809050611070565b600190505b5b606483029250600068056bc75e2d63100000905068ad78ebc5ac6200000084126110d15768ad78ebc5ac620000008403935068056bc75e2d631000006e01855144814a7ff805980ff00840008202816110cd576110cc611905565b5b0590505b6856bc75e2d631000000841261111a576856bc75e2d6310000008403935068056bc75e2d631000006b02df0ab5a80a22c61ab5a70082028161111657611115611905565b5b0590505b682b5e3af16b18800000841261116157682b5e3af16b188000008403935068056bc75e2d63100000693f1fce3da636ea5cf85082028161115d5761115c611905565b5b0590505b6815af1d78b58c40000084126111a8576815af1d78b58c4000008403935068056bc75e2d63100000690127fa27722cc06cc5e28202816111a4576111a3611905565b5b0590505b680ad78ebc5ac620000084126111ee57680ad78ebc5ac62000008403935068056bc75e2d6310000068280e60114edb805d038202816111ea576111e9611905565b5b0590505b68056bc75e2d6310000084126112345768056bc75e2d631000008403935068056bc75e2d63100000680ebc5fb417461211108202816112305761122f611905565b5b0590505b6802b5e3af16b1880000841261127a576802b5e3af16b18800008403935068056bc75e2d631000006808f00f760a4b2db55d82028161127657611275611905565b5b0590505b68015af1d78b58c4000084126112c05768015af1d78b58c400008403935068056bc75e2d631000006806f5f17757889379378202816112bc576112bb611905565b5b0590505b600068056bc75e2d63100000905060008590508082019150600268056bc75e2d63100000878302816112f5576112f4611905565b5b058161130457611303611905565b5b0590508082019150600368056bc75e2d631000008783028161132957611328611905565b5b058161133857611337611905565b5b0590508082019150600468056bc75e2d631000008783028161135d5761135c611905565b5b058161136c5761136b611905565b5b0590508082019150600568056bc75e2d631000008783028161139157611390611905565b5b05816113a05761139f611905565b5b0590508082019150600668056bc75e2d63100000878302816113c5576113c4611905565b5b05816113d4576113d3611905565b5b0590508082019150600768056bc75e2d63100000878302816113f9576113f8611905565b5b058161140857611407611905565b5b0590508082019150600868056bc75e2d631000008783028161142d5761142c611905565b5b058161143c5761143b611905565b5b0590508082019150600968056bc75e2d631000008783028161146157611460611905565b5b05816114705761146f611905565b5b0590508082019150600a68056bc75e2d631000008783028161149557611494611905565b5b05816114a4576114a3611905565b5b0590508082019150600b68056bc75e2d63100000878302816114c9576114c8611905565b5b05816114d8576114d7611905565b5b0590508082019150600c68056bc75e2d63100000878302816114fd576114fc611905565b5b058161150c5761150b611905565b5b059050808201915060648468056bc75e2d631000008486028161153257611531611905565b5b05028161154257611541611905565b5b059450505050505b919050565b600073ffffffffffffffffffffffffffffffffffffffff82169050919050565b6000819050919050565b600061159461158f61158a8461154f565b61156f565b61154f565b9050919050565b60006115a682611579565b9050919050565b60006115b88261159b565b9050919050565b6115c8816115ad565b82525050565b60006020820190506115e360008301846115bf565b92915050565b6000819050919050565b6115fc816115e9565b82525050565b600060208201905061161760008301846115f3565b92915050565b600063ffffffff82169050919050565b6116368161161d565b82525050565b6000602082019050611651600083018461162d565b92915050565b600060ff82169050919050565b61166d81611657565b82525050565b60006020820190506116886000830184611664565b92915050565b60006116998261159b565b9050919050565b6116a98161168e565b82525050565b60006020820190506116c460008301846116a0565b92915050565b6000819050919050565b6116dd816116ca565b82525050565b60006020820190506116f860008301846116d4565b92915050565b600081519050919050565b600082825260208201905092915050565b60005b8381101561173857808201518184015260208101905061171d565b60008484015250505050565b6000601f19601f8301169050919050565b6000611760826116fe565b61176a8185611709565b935061177a81856020860161171a565b61178381611744565b840191505092915050565b600060208201905081810360008301526117a88184611755565b905092915050565b60006117bb8261159b565b9050919050565b6117cb816117b0565b82525050565b60006020820190506117e660008301846117c2565b92915050565b60006117f78261159b565b9050919050565b611807816117ec565b82525050565b600060208201905061182260008301846117fe565b92915050565b60008115159050919050565b61183d81611828565b82525050565b60006020820190506118586000830184611834565b92915050565b7f4e487b7100000000000000000000000000000000000000000000000000000000600052601160045260246000fd5b6000611898826116ca565b91506118a3836116ca565b92508282026118b1816116ca565b91507f800000000000000000000000000000000000000000000000000000000000000084146000841216156118e9576118e861185e565b5b82820584148315176118fe576118fd61185e565b5b5092915050565b7f4e487b7100000000000000000000000000000000000000000000000000000000600052601260045260246000fd5b600061193f826116ca565b915061194a836116ca565b92508261195a57611959611905565b5b600160000383147f8000000000000000000000000000000000000000000000000000000000000000831416156119935761199261185e565b5b828205905092915050565b60006119a98261154f565b9050919050565b6119b98161199e565b82525050565b60006020820190506119d460008301846119b0565b92915050565b6000604051905090565b600080fd5b600080fd5b6119f7816115e9565b8114611a0257600080fd5b50565b600081519050611a14816119ee565b92915050565b600060208284031215611a3057611a2f6119e4565b5b6000611a3e84828501611a05565b91505092915050565b6000611a52826115e9565b9150611a5d836115e9565b9250828202611a6b816115e9565b91508282048414831517611a8257611a8161185e565b5b5092915050565b6000611a94826115e9565b9150611a9f836115e9565b925082611aaf57611aae611905565b5b828204905092915050565b6000611ac58261199e565b9050919050565b611ad581611aba565b8114611ae057600080fd5b50565b600081519050611af281611acc565b92915050565b6000611b038261199e565b9050919050565b611b1381611af8565b8114611b1e57600080fd5b50565b600081519050611b3081611b0a565b92915050565b6000611b418261199e565b9050919050565b611b5181611b36565b8114611b5c57600080fd5b50565b600081519050611b6e81611b48565b92915050565b600080600060608486031215611b8d57611b8c6119e4565b5b6000611b9b86828701611ae3565b9350506020611bac86828701611b21565b9250506040611bbd86828701611b5f565b9150509250925092565b611bd081611828565b8114611bdb57600080fd5b50565b600081519050611bed81611bc7565b92915050565b600060208284031215611c0957611c086119e4565b5b6000611c1784828501611bde565b91505092915050565b60006fffffffffffffffffffffffffffffffff82169050919050565b611c4581611c20565b8114611c5057600080fd5b50565b600081519050611c6281611c3c565b92915050565b600060208284031215611c7e57611c7d6119e4565b5b6000611c8c84828501611c53565b91505092915050565b6000611ca0826115e9565b9150611cab836115e9565b9250828203905081811115611cc357611cc261185e565b5b92915050565b7f4e487b7100000000000000000000000000000000000000000000000000000000600052604160045260246000fd5b7f4e487b7100000000000000000000000000000000000000000000000000000000600052603260045260246000fd5b600081519050919050565b600082825260208201905092915050565b6000819050602082019050919050565b611d5c8161161d565b82525050565b6000611d6e8383611d53565b60208301905092915050565b6000602082019050919050565b6000611d9282611d27565b611d9c8185611d32565b9350611da783611d43565b8060005b83811015611dd8578151611dbf8882611d62565b9750611dca83611d7a565b925050600181019050611dab565b5085935050505092915050565b60006020820190508181036000830152611dff8184611d87565b905092915050565b600080fd5b611e1582611744565b810181811067ffffffffffffffff82111715611e3457611e33611cc9565b5b80604052505050565b6000611e476119da565b9050611e538282611e0c565b919050565b600067ffffffffffffffff821115611e7357611e72611cc9565b5b602082029050602081019050919050565b600080fd5b60007affffffffffffffffffffffffffffffffffffffffffffffffffffff82169050919050565b611eb981611e89565b8114611ec457600080fd5b50565b600081519050611ed681611eb0565b92915050565b6000611eef611eea84611e58565b611e3d565b90508083825260208201905060208402830185811115611f1257611f11611e84565b5b835b81811015611f3b5780611f278882611ec7565b845260208401935050602081019050611f14565b5050509392505050565b600082601f830112611f5a57611f59611e07565b5b8151611f6a848260208601611edc565b91505092915050565b600060208284031215611f8957611f886119e4565b5b600082015167ffffffffffffffff811115611fa757611fa66119e9565b5b611fb384828501611f45565b91505092915050565b6000611fc782611e89565b9150611fd283611e89565b925082820390507affffffffffffffffffffffffffffffffffffffffffffffffffffff8111156120055761200461185e565b5b92915050565b600061201682611e89565b915061202183611e89565b92508261203157612030611905565b5b828204905092915050565b7f496e76616c6964206578706f6e656e7400000000000000000000000000000000600082015250565b6000612072601083611709565b915061207d8261203c565b602082019050919050565b600060208201905081810360008301526120a181612065565b905091905056fea264697066735822122084705192ac70f289ddebb448ebc8f4d1c6ef03582cb40521b5219dfb8faf179864736f6c63430008140033",
  "devdoc": {
    "author": "Zerolend.",
    "kind": "dev",
    "methods": {
      "latestAnswer()": {
        "details": "This function gives the latest answer in 8 decimals."
      }
    },
    "title": "PTLBTCMar272025Oracle",
    "version": 1
  },
  "userdoc": {
    "kind": "user",
    "methods": {
      "oracle()": {
        "notice": "The address of the asset to USD aggregator"
      },
      "twapDuration()": {
        "notice": "The duration of the TWAP used to calculate the PT price"
      }
    },
    "notice": "Gives the price of PT-LBTC in ETH in base 8",
    "version": 1
  },
  "storageLayout": {
    "storage": [
      {
        "astId": 5427,
        "contract": "contracts/pendle/implementations/mainnet/PTLBTCMar272025Oracle.sol:PTLBTCMar272025Oracle",
        "label": "enableBalanceCheck",
        "offset": 0,
        "slot": "0",
        "type": "t_bool"
      },
      {
        "astId": 5291,
        "contract": "contracts/pendle/implementations/mainnet/PTLBTCMar272025Oracle.sol:PTLBTCMar272025Oracle",
        "label": "oracle",
        "offset": 1,
        "slot": "0",
        "type": "t_contract(IAaveOracle)5282"
      }
    ],
    "types": {
      "t_bool": {
        "encoding": "inplace",
        "label": "bool",
        "numberOfBytes": "1"
      },
      "t_contract(IAaveOracle)5282": {
        "encoding": "inplace",
        "label": "contract IAaveOracle",
        "numberOfBytes": "20"
      }
    }
  }
}